:1003420020203E3E204C4F434B4544203C3C202045
:1003520000507265737320616E79206B65792E2E61
:100362002E0050617373776F72643A20005B455DB3
:100372003D4F4B20205B435D3D434C5200203E3EAF
:1003820020434F525245435421203C3C2000537796
:1003920069746368204A5038206E6F7720004A5093
:1003A20038204F4E2C4A5034204F46460054686540
:1003B2006E207072657373205B4B315D00202A2AB8
:1003C2002057454C434F4D45202A2A202000417595
:1003D200746F206C6F636B20696E3A203573002056
:1003E2003E3E2057524F4E472121203C3C202000C8
:1003F20054727920616761696E2E2E2E20202000B2
:10040200202A2A204C4F434B4F5554202A2A202081
:100412000057616974203330207365636F6E6473B3
:10042200004A5034204F4E2C4A5038204F46460046
:100432005468656E207072657373205B4B325D0089
:1004420050617373776F7264204C6F636B207634E4
:10045200004A5038204F464621204A5034204F4E01
:10046200004E6565642034206469676974732120D5
:10047200004175746F206C6F636B20696E3A2020A7
:1004820020004175746F206C6F636B696E672E2E4E
:100492002E0020202020202020202020202020206C
:1004A20020200052656D61696E3A202020202020B4
:1004B200202020007320200001030206040C0809FA
:0A04C20001020304FEFEFC33CD66C8
:10069F00C2A5C2A78F807F017E001206B2D2A77FAC
:0306AF00017E00C9
:1006B200EF1FAA0670011E4A6014E4FCFDC3ED940C
:0E06C20078EC940050EA000DBD00010C80EFB2
:0106D0002207
:0F08E800C2AFC2A612069FC2A77580FFD2AF2271
:1007D6007C001204F77C007D0A1204F7ED2430FF3A
:0F07E600C2AFD2A612069FC2A77580FFD2AF2264
:0A085200850917850A18E4FD7F01EF
:0F085C00EF70047F8080027FC0EF2DFF0208E85D
:100727008B1F8A208921AB1FAA20A9211204CC6024
:10073700130521E5217002052014F91204CCFF12DC
:0507470007E680E2223C
:0707B500E4FF1207BC7F0105
:1007BC00E4FD12085CE4FBEBC3941074809480504D
:0907CC00087F201207E60B80EE05
:0107D5002201
:10074C008B198A1A891B1207B5E4FDFF12085CABE2
:10075C0019AA1AA91B120727120858AB1CAA1DA903
:04076C001E0207273B
:100793007F327E001206B27F381208E87F0C1208FF
:1007A300E87F061208E87F011208E87F057E000251
:0207B30006B28C
:1005B400E4FF7590F00000E59054F064F0700122BF
:1005C400E4FEEEC39404748094805047A80674013A
:1005D400088002C333D8FCF4540F44F0F5900000B3
:1005E400E59054F0FD64F06027ED20E705EE04FF8C
:1005F4008021ED20E606EE2405FF8017ED20E506B8
:10060400EE2409FF800DED20E409EE240DFF8003A4
:060614000E80AF7590F0AE
:01061A0022BD
:10054C001205B48F19EF60F87F147E001206B212F8
:10055C0005B4EFB519EA1205B4EF70FA7F14FE1268
:10056C0006B27D037C00E4FF12086BAF19C3EF9455
:10057C0001748094804010D3EF940974809480505F
:10058C0006E5192430FF22E519FD7C00640A70038E
:10059C007F3022ED640B4C70037F4522E519640C0F
:0705AC0070037F43227F0072
:0105B3002225
:10086B008F0D8C128D13EF9004C693F58CEF9004C3
:09087B00C993F58AD28CD2A9229E
:0C000E00C2A9C28CC2A5E4F512F51322B1
:1006FF00050BAF0BEF3395E0FEC3EF9408EE64806C
:10070F0094804003E4F50BE50B9004BA93FFE5905A
:08071F0054F0FEEF4EF59022AC
:10077000150BAF0BEF3395E0C36480948050037585
:100780000B07E50B9004BA93FFE59054F0FEEF4E93
:03079000F59022BF
:06066C008E198F1AAB0588
:10067200E4F51BF51CC3E51C951AE51B9519501CE6
:10068200EB60051206FF80031207707F027E0012E4
:0C06920006B2051CE51C70DD051B80D9BC
:01069E002239
:070003005390F0E4F50B221D
:10088400751CFF751D03751E537BFF7A0379421295
:07089400074CC2A1C2B4220F
:1006D1001207B5E4FDFF12085C7BFF7A037964120F
:1006E1000727E4FBEBC3950C50087F2A1207E60BA2
:0E06F10080F21208587BFF7A03796F02072708
:1007F500751CFF751D03751E907BFF7A03797F12AB
:0F080500074CD2A1D2B47D0F7C007F0102086B9B
:1008B200751CFF751D03751EAF7BFF7A0379A002BD
:0208C200074CE1
:1008C400751CFF751D03751ED07BFF7A0379BF026B
:0208D400074CCF
:10081400751CFF751D03751EF27BFF7A0379E112C7
:0F082400074CC2A1C2B47D197C007F0202086B91
:10089B00751CFF751D04751E137BFF7A04790212FC
:0708AB00074CC2A1C2B422F8
:1008D600751CFF751D04751E327BFF7A0479230291
:0208E600074CBD
:03000B00020833B5
:10083300C0E0C083C082E50D9004C693F58CE50D3E
:0F0843009004C993F58AB2A5D082D083D0E03259
:03001B0002061BBF
:10061B00C0E0C0D075D000C007758DB7758BFFD308
:10062B00E5139400E51294004011E51315137002C5
:10063B001512E5134512700312000EAF08EF640399
:10064B006005EF64057013D3E50A9400E509940087
:10065B004008E50A150A70021509D007D0D0D0E082
:01066B00325C
:10001E007580FF7590F075A0FF75B0FFE4F508F5DB
:10002E0014F509F50AF50BF50CF512F513F516C3D3
:10003E00E516940474809480500B740E2516F8E423
:10004E00F6051680EAC2A1C2B45389F0438901C2F3
:10005E00A9C28C53890F438910758DB7758BFFD24A
:10006E00ABD28E120793D2AF751CFF751D04751E91
:10007E00537BFF7A04794212074C7FD07E07020130
:10008E0077E508146043147003020209147003022A
:10009E0002451470030201E51470030202ED2405FB
:1000AE0070DF12088412054CE4F50CF516C3E51644
:1000BE00940474809480500B740E2516F8E4F605A3
:1000CE001680EA7508010201DF12054C8F15E51541
:1000DE00B4431EE4F50CF516C3E51694047480942F
:1000EE0080500B740E2516F8E4F6051680EA020110
:1000FE00DFE515644560030201AFC3E50C9404749B
:10010E0080948050161208587BFF7A047963120788
:10011E00277F207E031206B20201DFE4F516AF162A
:10012E007E00C3EF9404748094805014E5169004FE
:10013E00C293FD740E2516F8E6B50504051680DE8D
:10014E00EF64044E7029F5141207F57FB07E041289
:10015E0006B21208B275080220B1FD7F147E00129D
:10016E0006B230B1FD7F147E001206B202008F057A
:10017E00141208147FDC7E051206B2C3E514940334
:10018E00748094804015750805750905750ADC7430
:10019E00FFF517F51812089B02008F750804020070
:1001AE008FE515C39430500302008FE515D39439B3
:1001BE00400302008FC3E50C9404748094804003C6
:1001CE0002008FE51524D0FF740E250CF8A6070546
:1001DE000C1206D102008FE4F50CF516C3E5169449
:1001EE000474809480500B740E2516F8E4F60516F0
:1001FE0080EA7508011206D10202E61208C47D0FCC
:10020E007C007F0112086B7F2C7E011206B27D01ED
:10021E007F007E0212066C1200037FC87E0012065B
:10022E00B2750803750900750AFA74FFF517F5180B
:10023E00D2A1D2B402008FE50A65187004E50965F3
:10024E0017604E1208527BFF7A0479731207277DCE
:10025E000E7F0112085CC3E50A9432E5099400AEE4
:10026E0009AF0A7C0040047D32801E7D141204E525
:10027E007C037DE81207D87F2E1207E6AE09AF0A7F
:10028E007C007D141204E57D641207D87F7312077B
:10029E00E6E50A4509600302008F751CFF751D0413
:1002AE00751E947BFF7A04798412074C7FF47E01CD
:1002BE001206B2E4FDFF7E0212066C120003120853
:1002CE00D620B0FD7F147E001206B230B0FD7F1432
:1002DE007E001206B2E4F508C2A1C2B402008FE598
:1002EE000A65187004E509651760351208527BFF20
:1002FE007A0479A51207277D087F0112085CAE09E2
:10030E00AF0A7C007D321204F77D0A1207D6AE09C1
:10031E00AF0A7D321207D67BFF7A0479B612072711
:10032E00E50A4509600302008FF514F508C2A1C263
:04033E00B402008F76
:030000000208F7FC
:0C08F700787FE4F6D8FD75812102001E18
:1004CC00BB010689828A83E0225002E722BBFE022E
:0904DC00E32289828A83E4932261
:1004E500EF8DF0A4A8F0CF8CF0A428CE8DF0A42E2B
:0204F500FE22E5
:1004F700BC000BBE0029EF8DF084FFADF022E4CCE9
:10050700F875F008EF2FFFEE33FEEC33FCEE9DECB1
:10051700984005FCEE9DFE0FD5F0E9E4CEFD22EDF7
:10052700F8F5F0EE8420D21CFEADF075F008EF2F41
:10053700FFED33FD4007985006D5F0F222C398FD32
:050547000FD5F0EA22CF
:00000001FF
