:0A001600C0F9A4B0999282F880901E
:0601E50001090001080001
:0401B2007F147E0038
:1001B600D3EF9400EE940040147D787C00ED1D7022
:0D01C600011CED4C70F7EF1F70E61E80E38A
:0101D3002209
:0801DD008F993099FDC29922AF
:030003000201589F
:10015800C0E0C0D075D000C004C005C006C00712FA
:1001680001B220B20B7F111201DD30B2FD1201B2D3
:0D017800D007D006D005D004D0D0D0E032A2
:0300130002018562
:10018500C0E0C0D075D000C004C005C006C00712CD
:1001950001B220B30B7F221201DD30B3FD1201B293
:0D01A500D007D006D005D004D0D0D0E03275
:03000B000200B23E
:0F00B200C0E0C0F0C083C082C0D075D000C007CE
:1000C100758CF8758ACD7580FF5390F8E50870043A
:1000D1007F0180027F008F08E5086011E50975F056
:1000E1000A8490001693F5805390F88016E50975FF
:1000F100F00A84E5F090001693F580E59054F844F9
:0301010001F59075
:0D010400D007D0D0D082D083D0F0D0E03230
:030023000201D403
:0901D400309805859909C29832A2
:100111007580FFE4F59075A0FF75B0FFF50953896F
:10012100F0438901758CF8758ACDD2A9D28C538997
:100131000F438920758DFD758BFDD28E759850F515
:1001410087D2ACD288D2A8D28AD2AAD2B8D2BAC225
:07015100B9C2BCD2AF80FE71
:03000000020026D5
:0C002600787FE4F6D8FD75810902006DBA
:10003200020111E493A3F8E493A34003F68001F2D2
:1000420008DFF48029E493A3F85407240CC8C333CF
:10005200C4540F4420C8834004F456800146F6DF9E
:10006200E4800B01020408102040809001E5E47E48
:10007200019360BCA3FF543F30E509541FFEE49393
:10008200A360010ECF54C025E060A840B8E493A35A
:10009200FAE493A3F8E493A3C8C582C8CAC583CA85
:1000A200F0A3C8C582C8CAC583CADFE9DEE780BE3D
:0101EB000013
:00000001FF
