:0A02A300C0F9A4B0999282F880908F
:0B02970002080000020A0000010C0039
:100286005389F0438901758CFC758A18D2A9D28CE2
:010296002245
:05000600D288D2A822FF
:1001E900E4F50E751014C201C202C2001202861291
:1001F9000006D2AF30021312026920B20B200108A7
:10020900850E0D85100FD201C2023001E730B2E42C
:1002190012026930B2DEC201850D0E850F1012017E
:030229009F80D1E2
:03000B0002000EE2
:10000E00C0E0C0F0C083C082C0D075D000C000C0B8
:0D001E0001C002C003C004C005C006C00739
:10002B00758CFC758A18C2A0C2A1C2A2C2A3E50C32
:10003B0014601614601F1460282403702EE51190B1
:10004B0002A393F580D2A08022E5129002A393F530
:10005B0080D2A18016E5139002A393F580D2A280E3
:10006B000AE5149002A393F580D2A3E50C04540384
:10007B00F50C20016C050BE50B7002050AC394F41B
:10008B00E50A94014008750A00750B00B2000509DA
:10009B00E50970020508C394E8E5089403403D7533
:1000AB000800750900D3E510940074809480400219
:1000BB001510E5107023E50E045403F50E14600FB4
:1000CB0014600E1460092403700F751014800A80DD
:1000DB000575100F800375100312019F12022C80FF
:0D00EB000CC293C290D295D294D292D291C1
:1000F800D007D006D005D004D003D002D001D0005C
:0B010800D0D0D082D083D0F0D0E03205
:10019F00E50E14601314601614601C2403701CAE5B
:1001AF0010E5102403FF8013AE10AF10800DAF10B9
:1001BF00E5102403FE8004AF10AE10EF75F00A8433
:1001CF00F511EF75F00A8485F012EE75F00A84F5DB
:0901DF0013EE75F00A8485F0149A
:0101E80022F4
:10022C00D293D295D294D290D292D291E50E146000
:10023C000F14601814601A24037021C294C2902207
:10024C00C290300003C38001D3929522C291C29315
:0D025C0022C293300003C38001D39292228E
:030003000202AD49
:0602AD00200102D2023222
:10026900E4FFFEE4FDFC0DBD00010CED64784C706B
:0C027900F50FBF00010EEF640A4E70E7A5
:010285002256
:03000000020113E7
:0C011300787FE4F6D8FD75812002015AC7
:10011F000201E9E493A3F8E493A34003F68001F20C
:10012F0008DFF48029E493A3F85407240CC8C333E1
:10013F00C4540F4420C8834004F456800146F6DFB0
:10014F00E4800B0102040810204080900297E47EA7
:10015F00019360BCA3FF543F30E509541FFEE493A5
:10016F00A360010ECF54C025E060A840B8E493A36C
:10017F00FAE493A3F8E493A3C8C582C8CAC583CA97
:10018F00F0A3C8C582C8CAC583CADFE9DEE780BE4F
:0102A200005B
:00000001FF
