:0B028500C0F9A4B0999282F88090FFAD
:10021A0004100A0A0A0A010E0001140DC102C100E3
:10022A00C101C104C10301080002090000020B0058
:01023A0000C3
:10023C00E4FDFCC3ED9FEC9E5015E4FBFA0BBB00F8
:0F024C00010AEB64784A70F50DBD00010C80E4E7
:01025B002280
:1001DD00D293D295D294D290D292D291E50E146050
:1001ED000F14601814601A24037021C294C2902257
:1001FD00C290300403C38001D3929522C293C29161
:0D020D0022C293300403C38001D3929222D9
:10025C00E51475F00A84FFF510E51475F00A84AE08
:08026C00F08E118F128E132297
:100274005389F0438901758CFC758A18D2A9D28CF4
:010284002257
:05000600D288D2A822FF
:10000E00120274120006D2AF1201DD12025C30022F
:10001E0030200008850E0D85140FD200C293D295A4
:10002E00D294C290D292D291E4F510F511F512F558
:10003E001330B2DA7F14FE12023C30B2D1C202800B
:10004E00CD30000E850D0E850F14C2001201DD128B
:10005E00025C300305C2031201DD3001B1C201D3CF
:10006E00E51494007480948040021514E50E14601B
:10007E001E1460271460382403703DAF147E00EF09
:10008E0064037005750E01802FEF4E702B8004E512
:10009E00147025750E02751408801DAF147E00EFC6
:1000AE0064037005750E03800FEF4E700B8004E530
:0E00BE00147005F50E75140D12025C02001C84
:03000B0002015897
:0D015800C0E0C083C082C0D075D000C000E0
:10016500758CFC758A1875A00074102508F8E69042
:10017500028593F580E50814600E14600F14601075
:100185002403700ED2A0800AD2A18006D2A28002DA
:10019500D2A3E508045403F508050AE50A7002052B
:1001A50009C394E8E50994034008750900750A0038
:1001B500D201050CE50C7002050BC394F4E50B9414
:0D01C50001400A750B00750C00B204D20356
:0B01D200D000D0D0D082D083D0E0322B
:0300030002029066
:03029000B2023285
:030000000200CC2F
:0C00CC00787FE4F6D8FD75812002011356
:1000D80002000EE493A3F8E493A34003F68001F230
:1000E80008DFF48029E493A3F85407240CC8C33329
:1000F800C4540F4420C8834004F456800146F6DFF8
:10010800E4800B010204081020408090021AE47E6B
:10011800019360BCA3FF543F30E509541FFEE493EC
:10012800A360010ECF54C025E060A840B8E493A3B3
:10013800FAE493A3F8E493A3C8C582C8CAC583CADE
:10014800F0A3C8C582C8CAC583CADFE9DEE780BE96
:01023B0000C2
:00000001FF
