:0B02D700C0F9A4B0999282F88090FF5B
:1002810004110A0A0A0A010E00011614011500C11F
:1002910002C100C101C104C103010800020900003B
:0402A100020B00004C
:1002A600E4FDFCC3ED9FEC9E5015E4FBFA0BBB008E
:0F02B600010AEB64784A70F50DBD00010C80E47D
:0102C5002216
:10024400D293D295D294D290D292D291E50E1460E8
:100254000F14601814601A24037021C294C29022EF
:10026400C290300403C38001D3929522C293C291F9
:0D02740022C293300403C38001D392922272
:0701FB00120244AD15AF161E
:10020200EFD39400748094804011EF75F00A84F566
:1002120011EF75F00A8485F012800675110A7512C5
:100222000AEDD39400748094804010ED75F00A8436
:10023200F513ED75F00A8485F0142275130A75140E
:020242000A228E
:1002C6005389F0438901758CFC758A18D2A9D28CA2
:0102D6002205
:05000600D288D2A822FF
:10000E001202C6120006D2AF1201FB3002322000DD
:10001E000B850E0D85161085150FD200C293D29545
:10002E00D294C290D292D291AD0FAF101202023082
:10003E00B2D97F147E001202A630B2CFC20280CB9C
:10004E0030000E850D0E851016850F15C20012019B
:10005E00FB300305C2031202443001AFC201E50EAC
:10006E0014602514603D14605524037069D3E516A1
:10007E0094007480948040021516E5167058750E23
:10008E0001751603F515804ED3E516940074809411
:10009E008040021516E516703D750E02F5167515A3
:1000AE000F8033D3E51594007480948040021515AB
:1000BE00E5157022750E03F5167515038018D3E538
:1000CE001594007480948040021515E5157007F59F
:0C00DE000E751614F5151201FE02001933
:03000B0002017679
:0D017600C0E0C083C082C0D075D000C000C2
:10018300758CFC758A1875A00074112508F8E69023
:1001930002D793F580E50814600E14600F14601005
:1001A3002403700ED2A0800AD2A18006D2A28002BC
:1001B300D2A3E508045403F508050AE50A7002050D
:1001C30009C394E8E50994034008750900750A001A
:1001D300D201050CE50C7002050BC394F4E50B94F6
:0D01E30001400A750B00750C00B204D20338
:0B01F000D000D0D0D082D083D0E0320D
:030003000202E214
:0902E200300203C20232D20232E2
:030000000200EA11
:0C00EA00787FE4F6D8FD7581200201311A
:1000F60002000EE493A3F8E493A34003F68001F212
:1001060008DFF48029E493A3F85407240CC8C3330A
:10011600C4540F4420C8834004F456800146F6DFD9
:10012600E4800B0102040810204080900281E47EE6
:10013600019360BCA3FF543F30E509541FFEE493CE
:10014600A360010ECF54C025E060A840B8E493A395
:10015600FAE493A3F8E493A3C8C582C8CAC583CAC0
:10016600F0A3C8C582C8CAC583CADFE9DEE780BE78
:0102A5000058
:00000001FF
