:0B029700C0F9A4B0999282F88090FF9B
:10021E0004110A0A0A0A010E0001160A01150AC182
:10022E0002C100C101C104C103010800020900009E
:04023E00020B0000AF
:10026600E4FDFCC3ED9FEC9E5015E4FBFA0BBB00CE
:0F027600010AEB64784A70F50DBD00010C80E4BD
:010285002256
:1001E100D293D295D294D290D292D291E50E14604C
:1001F1000F14601814601A24037021C294C2902253
:10020100C290300403C38001D3929522C293C2915C
:0D02110022C293300403C38001D3929222D5
:10024300E51675F00A84F511E51675F00A8485F054
:1002530012E51575F00A84F513E51575F00A848522
:03026300F0142272
:100286005389F0438901758CFC758A18D2A9D28CE2
:010296002245
:05000600D288D2A822FF
:10000E00120286120006D2AF1201E1120243300232
:10001E002E20000B850E0D85161085150FD200C2F1
:10002E0093D295D294C290D292D29112024330B210
:10003E00DD7F147E0012026630B2D3C20280CF3052
:10004E000011850D0E851016850F15C2001201E1E7
:10005E00120243300305C2031201E13001B0C201A6
:10006E00D3E51694007480948040021516D3E515DE
:10007E0094007480948040021515E50E14601614D9
:10008E00602214602B24037033E516702F750E0159
:10009E007516038027E5167023750E027516087502
:1000AE0015058018E5157014750E03751503800C73
:1000BE00E5157008F50E75160A75150D1202430238
:0200CE00001C14
:03000B0002015C93
:0D015C00C0E0C083C082C0D075D000C000DC
:10016900758CFC758A1875A00074112508F8E6903D
:10017900029793F580E50814600E14600F1460105F
:100189002403700ED2A0800AD2A18006D2A28002D6
:10019900D2A3E508045403F508050AE50A70020527
:1001A90009C394E8E50994034008750900750A0034
:1001B900D201050CE50C7002050BC394F4E50B9410
:0D01C90001400A750B00750C00B204D20352
:0B01D600D000D0D0D082D083D0E03227
:030003000202A254
:0902A200300203C20232D2023222
:030000000200D02B
:0C00D000787FE4F6D8FD7581200201174E
:1000DC0002000EE493A3F8E493A34003F68001F22C
:1000EC0008DFF48029E493A3F85407240CC8C33325
:1000FC00C4540F4420C8834004F456800146F6DFF4
:10010C00E4800B010204081020408090021EE47E63
:10011C00019360BCA3FF543F30E509541FFEE493E8
:10012C00A360010ECF54C025E060A840B8E493A3AF
:10013C00FAE493A3F8E493A3C8C582C8CAC583CADA
:10014C00F0A3C8C582C8CAC583CADFE9DEE780BE92
:0102420000BB
:00000001FF
