:1000060048656C6C6F20E9BD90E7BBA7E6B5A920F3
:0C0016003039343432343132380D0A00F5
:0301E300010B000D
:1001AC00D3EF9400EE940040147D787C00ED1D702C
:0D01BC00011CED4C70F7EF1F70E61E80E394
:0101C9002213
:0801DB008F993099FDC29922B1
:1001CA00E4FEEE90000693FF60061201DB0E80F259
:0101DA002202
:03000300020148AF
:10014800C0E0C083C082C0D075D000C004C005C064
:1001580006C0077F147E001201AC20B20D1201CA3E
:1001680030B2FD7F147E001201ACD007D006D00556
:0B017800D004D0D0D082D083D0E03281
:03002300020026B2
:0D002600C0E0C0D075D000C000C006C0070B
:1000330030987BAF99C298EF64316013BF3202806E
:100043000EBF3017E50BD3940074809480405CAEF0
:100053000B050B74082EF8A6078002804EE50B648F
:1000630002703DE508B4310AE509B431055380FE59
:10007300802BE508B4310AE509B4300543800180DB
:100083001CE508B4320AE509B431055380FD800D3F
:10009300E508B43208E509B43003438002750B0068
:0E00A300C3E50B9403748094804003750B003A
:0B00B100D007D006D000D0D0D0E03245
:100183007580FFE4F59075A0FF75B0FF53890F43A9
:100193008920758DFD758BFDD28E759850F587D2AC
:0901A300ACD288D2A8D2AF80FED4
:030000000200BC3F
:0C00BC00787FE4F6D8FD75810B0201038B
:1000C800020183E493A3F8E493A34003F68001F2CA
:1000D80008DFF48029E493A3F85407240CC8C33339
:1000E800C4540F4420C8834004F456800146F6DF08
:1000F800E4800B01020408102040809001E3E47EB4
:10010800019360BCA3FF543F30E509541FFEE493FC
:10011800A360010ECF54C025E060A840B8E493A3C3
:10012800FAE493A3F8E493A3C8C582C8CAC583CAEE
:10013800F0A3C8C582C8CAC583CADFE9DEE780BEA6
:0101E6000018
:00000001FF
