:0A001900C0F9A4B0999282F880901B
:0A000E00020DFFFF010800010C00C5
:1001F900D3EF9400EE940040147D787C00ED1D70DF
:0D020900011CED4C70F7EF1F70E61E80E346
:0102160022C5
:080003008F993099FDC299228A
:03000B000201757A
:09017500C0E0C0D075D000C00745
:10017E00758CF8758ACD7580FF5390F8E508700D73
:10018E00E50DF46018850D805390F88010E50EF49F
:10019E00600B850E80E59054F84401F590E50870EB
:0901AE00047F0180027F008F082C
:0701B700D007D0D0D0E032E8
:03002300020026B2
:10002600C0E0C083C082C0D075D000C000C006C08A
:0100360007C2
:100037002098030200DAAF99C298BF31028013BF3C
:100047003202800EBF3017E50CD394007480948081
:10005700400CAE0C050C74092EF8A60780028070C0
:10006700E50C6402705FAF09120003AF0A120003C8
:10007700E509B43110E50AB4310B90001AE493F5A1
:100087000DF50E803DE509B4310AE50AB430059057
:10009700001A8023E509B43211E50AB4310C900047
:1000A7001BE493F50D90001A8014E509B43213E5AB
:1000B7000AB4300E90001BE493F50D900019E493F9
:1000C700F50E750C00C3E50C94037480948040030F
:0300D700750C00A5
:0F00DA00D007D006D000D0D0D082D083D0E03273
:1001BE007580FFE4F59075A0FF75B0FF750DFF75A6
:1001CE000EFF5389F0438901758CF8758ACDD2A93B
:1001DE00D28C53890F438920758DFD758BFDD28E80
:0B01EE00759850F587D2ACD2AF80FEB0
:030000000200E912
:0C00E900787FE4F6D8FD75810E0201302E
:1000F5000201BEE493A3F8E493A34003F68001F262
:1001050008DFF48029E493A3F85407240CC8C3330B
:10011500C4540F4420C8834004F456800146F6DFDA
:10012500E4800B010204081020408090000EE47E5C
:10013500019360BCA3FF543F30E509541FFEE493CF
:10014500A360010ECF54C025E060A840B8E493A396
:10015500FAE493A3F8E493A3C8C582C8CAC583CAC1
:10016500F0A3C8C582C8CAC583CADFE9DEE780BE79
:0100180000E7
:00000001FF
