:03000300010B00EE
:03002300020026B2
:0D002600C0E0C0D075D000C000C006C0070B
:10003300309878AF99C298EF64316013BF32028071
:100043000EBF3017E50BD39400748094804059AEF3
:100053000B050B74082EF8A6078002804BE50B6492
:1000630002703AE508B4310AE509B431057580FE3A
:100073008028E508B43107E509B430028019E508A2
:10008300B4320AE509B431057580FD800DE508B485
:100093003208E509B430037580FF750B00C3E50B27
:0B00A3009403748094804003750B00F0
:0B00AE00D007D006D000D0D0D0E03248
:100145007580FFE4F59075A0FF75B0FF53890F43E7
:100155008920758DFD758BFDD28E759850F587D2EA
:05016500ACD2AF80FEEA
:030000000200B942
:0C00B900787FE4F6D8FD75810B02010091
:1000C500020145E493A3F8E493A34003F68001F20B
:1000D50008DFF48029E493A3F85407240CC8C3333C
:1000E500C4540F4420C8834004F456800146F6DF0B
:1000F500E4800B0102040810204080900003E47E98
:10010500019360BCA3FF543F30E509541FFEE493FF
:10011500A360010ECF54C025E060A840B8E493A3C6
:10012500FAE493A3F8E493A3C8C582C8CAC583CAF1
:10013500F0A3C8C582C8CAC583CADFE9DEE780BEA9
:0100060000F9
:00000001FF
