:10018C0048656C6C6F20E9BD90E7BBA7E6B5A9206C
:0C019C003039343432343132380D0A006E
:0501C100C180010B00EC
:10000300D3EF9400EE940040147D787C00ED1D70D6
:0D001300011CED4C70F7EF1F70E61E80E33E
:0100200022BD
:0801B9008F993099FDC29922D3
:1001A800E4FEEE90018C93FF60061201B90E80F216
:0101B8002224
:03002300020026B2
:0D002600C0E0C0D075D000C000C006C0070B
:100033002098030200B9AF99C298D200EF643160EF
:1000430013BF3202800EBF3017E50BD394007480C8
:100053009480400CAE0B050B74082EF8A6078005A0
:10006300750B008056E50B6402703DE508B4310A58
:10007300E509B431055380FE802BE508B4310AE568
:1000830009B43005438001801CE508B4320AE50950
:10009300B431055380FD800DE508B43208E509B499
:1000A3003003438002750B00C3E50B940374809403
:0B00B300804003750B00309902C299D9
:0B00BE00D007D006D000D0D0D0E03238
:100155007580FFE4F59075A0FF75B0FF53890F43D7
:100165008920758DFD758BFDD28E759850F587C2EA
:1001750099C2987F32FE120003D2ACD2AF3000FD97
:07018500C2001201A880F680
:030000000200C932
:0C00C900787FE4F6D8FD7581200201105C
:1000D500020155E493A3F8E493A34003F68001F2EB
:1000E50008DFF48029E493A3F85407240CC8C3332C
:1000F500C4540F4420C8834004F456800146F6DFFB
:10010500E4800B01020408102040809001C1E47EC8
:10011500019360BCA3FF543F30E509541FFEE493EF
:10012500A360010ECF54C025E060A840B8E493A3B6
:10013500FAE493A3F8E493A3C8C582C8CAC583CAE1
:10014500F0A3C8C582C8CAC583CADFE9DEE780BE99
:0101C6000038
:00000001FF
