:10017F0048656C6C6F20E9BD90E7BBA7E6B5A92079
:0C018F003039343432343132380D0A007B
:0301B400010B003C
:10000300D3EF9400EE940040147D787C00ED1D70D6
:0D001300011CED4C70F7EF1F70E61E80E33E
:0100200022BD
:0801AC008F993099FDC29922E0
:10019B00E4FEEE90017F93FF60061201AC0E80F23D
:0101AB002231
:03002300020026B2
:0D002600C0E0C0D075D000C000C006C0070B
:100033002098030200B7AF99C298EF64316013BFF1
:100043003202800EBF3017E50BD394007480948086
:10005300400CAE0B050B74082EF8A6078005750B34
:10006300008056E50B6402703DE508B4310AE509EA
:10007300B431055380FE802BE508B4310AE509B499
:100083003005438001801CE508B4320AE509B43128
:10009300055380FD800DE508B43208E509B430034B
:1000A300438002750B00C3E50B9403748094804076
:0900B30003750B00309902C2999B
:0B00BC00D007D006D000D0D0D0E0323A
:100153007580FFE4F59075A0FF75B0FF53890F43D9
:100163008920758DFD758BFDD28E759850F587C2EC
:0C01730099C29812019BD2ACD2AF80FE62
:030000000200C734
:0C00C700787FE4F6D8FD75810B02010E75
:1000D300020153E493A3F8E493A34003F68001F2EF
:1000E30008DFF48029E493A3F85407240CC8C3332E
:1000F300C4540F4420C8834004F456800146F6DFFD
:10010300E4800B01020408102040809001B4E47ED7
:10011300019360BCA3FF543F30E509541FFEE493F1
:10012300A360010ECF54C025E060A840B8E493A3B8
:10013300FAE493A3F8E493A3C8C582C8CAC583CAE3
:10014300F0A3C8C582C8CAC583CADFE9DEE780BE9B
:0101B7000047
:00000001FF
