:1005370048656C6C6F2C202573202B2025730D0AC2
:1005470000E9BD90E7BBA7E6B5A9003039343432DE
:050557003431323800D0
:030569000122006C
:10000300759850438920758DFD758BFDD28ED2AFC7
:03001300D2AC224A
:08055C008F993099FDC299222C
:05056400AE0702055C7A
:0304FD0020B236F4
:10050000E4F508F5090509E50970020508B488F560
:10051000E508B413F020B21E750DFF750E05750FBA
:10052000487510FF7511057512527BFF7A057937F2
:0605300012008830B2FD4C
:0105360022A2
:0300230002049C38
:10049C00C0E0C0D075D000C000C00730984AC298E8
:1004AC00AF22052274232FF8A699C3E52294027477
:1004BC008094804033752200E523B43107E524B4E1
:1004CC003102C2A0E523B43107E524B43002D2A036
:1004DC00E523B43207E524B43102C2A1E523B432DA
:1004EC0007E524B43002D2A1D007D000D0D0D0E0A0
:0104FC0032CD
:0C001600120003D2A0D2A11204FD80FB56
:03000000020410E7
:0C041000787FE4F6D8FD758124020457C3
:10002600E519240DF8E6051922780A300702780D3D
:10003600E475F0011203DA0203822000EB7F2ED270
:10004600008018EF540F2490D43440D4FF30040BB2
:10005600EF24BFB41A0050032461FFE51A600215AD
:100066001A051DE51D7002051C30070D780AE4759A
:10007600F0011203DAEF0203C80205647403D20723
:100086008003E4C207F5198B0A8A0B890CE4F51A7A
:10009600F51CF51DE51A60077F2012006180F575D5
:1000A6001BFFC201C200C202C203C205C206C208C9
:1000B60012002FFF700D3007057F00120072AF1D72
:1000C600AE1C22B4255FC2D5C20412002FFF24D075
:1000D600B40A00501A75F00A781A30D50508B6FF2A
:1000E6000106C6A426F620D5047002D20380D924C0
:1000F600CFB41A00EF5004C2E5D204020272D20154
:1001060080C6D20080C0D20280BCD2D580BAD205C9
:1001160080B47F201200612002077401B51A0040E6
:10012600F1120026FF12006102009AD208D2068060
:1001360095120026FB120026FA120026F94A4B7089
:100146000679437A037BFF20022EE51A602A7E0099
:100156008E8275830012039B60060EEE651B70F09F
:10016600C2D5EBC0E0EAC0E0E9C0E0EE1202B9D0C9
:10017600E0F9D0E0FAD0E0FB120382FF60AAEBC000
:10018600E0EAC0E0E9C0E0120061D0E02401F9D065
:10019600E03400FAD0E0FBE51B0460DCD51BD98017
:1001A600877BFF7A0279B5D202809C79108002792A
:1001B60008C206C2088008D2D5790A8004790AC224
:1001C600D5E51B047002F51BE4FAFDFEFF120026BE
:1001D600FC7B08200113120026FD7B1030000A125A
:1001E6000026FE120026FF7B20EC3382D592D550E6
:1001F60013C3E43000069FFFE49EFEE42001039D46
:10020600FDE49CFCE4CBF8C201EC700CCFCECDCC67
:10021600E824F8F870F38017C3EF33FFEE33FEEDF2
:1002260033FDEC33FCEB33FB994002FB0FD8E9EBD3
:10023600300105F8D0E0C448B201C0E00AEC4D4EEA
:100246004F78207B0070C2EAB51B0040BCC0E012AC
:1002560002BBD0F0D0E0200104C4C0E0C4B201C0AB
:10026600F012004AD0F0D5F0EB02009A1203EA0130
:10027600375301B15801084C01044201B54F01BD85
:0F0286004401BD49011D4301C35501A74601A70E
:100295004501A747036350010C2D01102E01332B97
:1002A500011423013120034C2A00CC480000012B06
:1002B5003F3F3F00790AA2D5200314300509B91044
:1002C500020404B9080104A2D52006025001042045
:1002D50002689202B51A005034C0E07F203003193D
:1002E5007F30A20272067205500F120312C202C2BB
:1002F50006C205C2087F30800F300503E9C0E01251
:100305000061300503D0E0F9D0E0B51ACC3005170F
:100315007F30B9100C1200617F583004077F788058
:1003250003B908031200613002057F2D0200617FC9
:10033500202008F87F2B2006F322920280CF286E1A
:10034500756C6C2900D2011200263001F8C20178C3
:100355001A30D50108F60200CC2D50434958120039
:10036500262403B405004001E490035E9312005275
:0D037500743A120052D203751A040201B14D
:10041C00020016E493A3F8E493A34003F68001F2E0
:10042C0008DFF48029E493A3F85407240CC8C333E1
:10043C00C4540F4420C8834004F456800146F6DFB0
:10044C00E4800B0102040810204080900569E47ED2
:10045C00019360BCA3FF543F30E509541FFEE493A5
:10046C00A360010ECF54C025E060A840B8E493A36C
:10047C00FAE493A3F8E493A3C8C582C8CAC583CA97
:10048C00F0A3C8C582C8CAC583CADFE9DEE780BE4F
:01056C00008E
:10038200BB010689828A83E0225002E722BBFE0279
:09039200E32289828A83E49322AC
:10039B00BB010CE58229F582E5833AF583E0225017
:1003AB0006E92582F8E622BBFE06E92582F8E22261
:0D03BB00E58229F582E5833AF583E493227B
:1003C800BB010689828A83F0225002F722BBFE0114
:0203D800F3220E
:1003DA00FAE6FB0808E6F925F0F618E6CA3AF62224
:1003EA00D083D082F8E4937012740193700DA3A3A2
:1003FA0093F8740193F5828883E4737402936860B6
:06040A00EFA3A3A380DFB5
:00000001FF
